:100000000C9434000C9451000C9451000C94510049
:100010000C9451000C9451000C9451000C9451001C
:100020000C9451000C9451000C9451000C9451000C
:100030000C9451000C9451000C9451000C945100FC
:100040000C9451000C9451000C942F010C9451000D
:100050000C94B3000C9453000C9451000C94510078
:100060000C9451000C94510011241FBECFEFD8E026
:10007000DEBFCDBF11E0A0E0B1E0E0E1F3E002C0FF
:1000800005900D92A831B107D9F722E0A8E1B1E0BF
:1000900001C01D92A032B207E1F70E94F1000C945A
:1000A00086010C9400001F920F920FB60F9211243C
:1000B0002F933F934F935F936F937F938F939F9370
:1000C000AF93BF93EF93FF93809179004AE06CE187
:1000D00072E090E00E945101EAE7F0E080818064E4
:1000E0008083FF91EF91BF91AF919F918F917F910D
:1000F0006F915F914F913F912F910F900FBE0F9095
:100100001F90189590911A01E92FF0E0E456FE4FE8
:1001100080839F5F1AF090931A01089510921A013C
:1001200008951F93CF93DF93EC0110E007C0FE0109
:10013000E80FF91F80810E9482001F5F812F90E0ED
:10014000FE0101900020E9F73197EC1BFD0B8E17A3
:100150009F0768F38091C00085FD1092C600DF9173
:10016000CF911F9108951F920F920FB60F921124F5
:100170008F939F93EF93FF93E0911B0180911A015E
:10018000E81789F0F0E0E456FE4F80818093C600C6
:1001900080911B0191E0980F1AF090931B0103C00E
:1001A0008E5F80931B01FF91EF919F918F910F9034
:1001B0000FBE0F901F901895909119018091180112
:1001C000981769F0E92FF0E0E45EFE4F80819F5FB1
:1001D0001AF090931901089510921901089580E082
:1001E00008951092C50087E68093C40088ED80933F
:1001F000C10086E08093C200EAE7F0E0808184607D
:100200008083ACE7B0E08C9180628C938C918064A9
:100210008C938081886080838081806880837894DB
:100220008081806480830E94DC00C82F813331F498
:10023000289A80E091E00E94910007C0803329F461
:10024000289889E091E00E9491008C2F90E08351E2
:10025000914049F78CE192E00E949100E4CF1F9217
:100260000F920FB60F9211248F939F93EF93FF93EA
:10027000809118019091C600E82FF0E0E45EFE4FF7
:1002800090838F5F1AF08093180102C010921801BA
:10029000FF91EF919F918F910F900FBE0F901F9044
:1002A0001895BB274A3031F4992322F4BDE290958A
:1002B00081959F4F0C945D01BB27FB015527AA2711
:1002C000880F991FAA1FA41710F0A41B83955051E3
:1002D000B9F7A05DAA3308F0A95DA193009779F75B
:1002E000B111B1931192CB010C947601DC01FC01A8
:1002F000672F71917723E1F7329704C07C916D935A
:1003000070836291AE17BF07C8F30895F894FFCFCA
:100310004C4544206F6E0D0A004C4544206F6666C4
:080320000D0A004144430000F6
:00000001FF
