:100000000C9434000C9446000C9446000C9446006A
:100010000C9446000C9446000C9446000C94460048
:100020000C9446000C9446000C9446000C94460038
:100030000C9446000C9446000C9446000C94460028
:100040000C9446000C9446000C949E000C944600C0
:100050000C9448000C9446000C9446000C94460006
:100060000C9446000C94460011241FBECFEFD8E03C
:10007000DEBFCDBF22E0A0E0B1E001C01D92A43000
:10008000B207E1F70E9486000C94C0000C940000B7
:100090001F920F920FB60F9211248F939F93EF939D
:1000A000FF93E091030180910201E81789F0F0E0ED
:1000B000EC57FE4F80818093C6008091030191E050
:1000C000980F1AF09093030103C08E5F8093030191
:1000D000FF91EF919F918F910F900FBE0F901F9006
:1000E00018959091010180910001981769F0E92F0E
:1000F000F0E0EC5FFE4F80819F5F1AF0909301016A
:10010000089510920101089580E008951092C500AD
:1001100087E68093C40088ED8093C10086E08093D9
:10012000C20081E084B978940E947100813311F497
:10013000289AFACF8033C1F72898F6CF1F920F92F2
:100140000FB60F9211248F939F93EF93FF9380919B
:1001500000019091C600E82FF0E0EC5FFE4F908325
:100160008F5F1AF08093000102C010920001FF918E
:10017000EF919F918F910F900FBE0F901F90189548
:04018000F894FFCF21
:00000001FF
